:020000040800F2
:100000000000012081400008A93F0008AB3F000824
:10001000AD3F0008AF3F0008B13F000800000000FE
:10002000000000000000000000000000B33F0008D6
:10003000B53F000800000000B73F0008B93F0008C6
:10004000D1400008D1400008D1400008D14000084C
:10005000D1400008D1400008D1400008D14000083C
:10006000D1400008D1400008D1400008D14000082C
:10007000D1400008D1400008D1400008D14000081C
:10008000D1400008D1400008D1400008D14000080C
:10009000D1400008D1400008D1400008D1400008FC
:1000A000D1400008D1400008D1400008D1400008EC
:1000B000D1400008D1400008D1400008D1400008DC
:1000C000D1400008D1400008D1400008D1400008CC
:1000D000D1400008D1400008D1400008D1400008BC
:1000E000D1400008D1400008D1400008D1400008AC
:1000F000D1400008D1400008D1400008D14000089C
:10010000D14000080000000000000000D1400008BD
:10011000D1400008D1400008D1400008D14000087B
:10012000D1400008D1400008D1400008D14000086B
:10013000D1400008D140000800000000000000008D
:10014000D1400008D1400008D14000080000000064
:10015000000000000000000000000000000000009F
:10016000D1400008D1400008D1400008D14000082B
:10017000D1400008D1400008D1400008D14000081B
:10018000D1400008D140000800000000000000003D
:04019000D140000852
:1001A00010B5054C237833B9044B13B10448AFF3B1
:1001B00000800123237010BD8C0600200000000089
:1001C000908D000808B5034B1BB103490348AFF3FA
:1001D000008008BD0000000090060020908D0008FF
:1001E000034613F8012B002AFBD1181A0138704777
:1001F00001F0FF01102A2BDB10F0070F08D010F8D8
:10020000013B013A8B422DD010F0070F42B3F6D1DB
:10021000F0B441EA012141EA014122F007047FF0F4
:1002200000070023F0E80256083C85EA010586EA4B
:10023000010685FA47F5A3FA87F586FA47F6A5FA87
:1002400087F68EB9EED1F0BC01F0FF0102F0070293
:1002500032B110F8013B013A83EA010313B1F8D13E
:100260000020704701387047002D06BF354603381F
:10027000073815F0010F07D1013015F4807F02BF58
:10028000013015F4C03F0130F0BC0138704700BFA9
:1002900081F0004102E000BF83F0004330B54FEA37
:1002A00041044FEA430594EA050F08BF90EA020FA4
:1002B0001FBF54EA000C55EA020C7FEA645C7FEA37
:1002C000655C00F0E2804FEA5454D4EB5555B8BF5A
:1002D0006D420CDD2C4480EA020281EA030382EACB
:1002E000000083EA010180EA020281EA0303362D5D
:1002F00088BF30BD11F0004F4FEA01314FF4801C30
:100300004CEA113102D0404261EB410113F0004F41
:100310004FEA03334CEA133302D0524263EB4303F8
:1003200094EA050F00F0A780A4F10104D5F1200E96
:100330000DDB02FA0EFC22FA05F2801841F10001F1
:1003400003FA0EF2801843FA05F359410EE0A5F1C5
:1003500020050EF1200E012A03FA0EFC28BF4CF0F6
:10036000020C43FA05F3C01851EBE37101F00045AC
:1003700007D54FF0000EDCF1000C7EEB00006EEBB9
:100380000101B1F5801F1BD3B1F5001F0CD3490843
:100390005FEA30004FEA3C0C04F101044FEA44529A
:1003A00012F5800F80F09A80BCF1004F08BF5FEA21
:1003B000500C50F1000041EB045141EA050130BD01
:1003C0005FEA4C0C404141EB010111F4801FA4F1A4
:1003D0000104E9D191F0000F04BF01460020B1FAF9
:1003E00081F308BF2033A3F10B03B3F120020CDA31
:1003F0000C3208DD02F1140CC2F10C0201FA0CF00F
:1004000021FA02F10CE002F11402D8BFC2F1200C73
:1004100001FA02F120FA0CFCDCBF41EA0C01904029
:10042000E41AA2BF01EB0451294330BD6FEA040472
:100430001F3C1CDA0C340EDC04F11404C4F120025D
:1004400020FA04F001FA02F340EA030021FA04F36F
:1004500045EA030130BDC4F10C04C4F1200220FAC6
:1004600002F001FA04F340EA0300294630BD21FA04
:1004700004F0294630BD94F0000F83F4801306BFCA
:1004800081F480110134013D4EE77FEA645C18BFBE
:100490007FEA655C29D094EA050F08BF90EA020F55
:1004A00005D054EA000C04BF1946104630BD91EA4D
:1004B000030F1EBF0021002030BD5FEA545C05D150
:1004C0004000494128BF41F0004130BD14F580048F
:1004D0003CBF01F5801130BD01F0004545F0FE4103
:1004E00041F470014FF0000030BD7FEA645C1ABF38
:1004F000194610467FEA655C1CBF0B46024650EA6F
:10050000013406BF52EA033591EA030F41F400219A
:1005100030BD00BF90F0000F04BF0021704730B520
:100520004FF4806404F132044FF000054FF00001F5
:1005300050E700BF90F0000F04BF0021704730B5B6
:100540004FF4806404F1320410F0004548BF40428B
:100550004FF000013EE700BF42004FEAE2014FEAE0
:1005600031014FEA02701FBF12F07F4393F07F4FBB
:1005700081F06051704792F0000F14BF93F07F4FED
:10058000704730B54FF4607401F0004521F0004130
:1005900020E700BF50EA010208BF704730B54FF0B6
:1005A00000050AE050EA010208BF704730B511F0BB
:1005B000004502D5404261EB41014FF4806404F1F3
:1005C00032045FEA915C3FF4DCAE4FF003025FEA75
:1005D000DC0C18BF03325FEADC0C18BF033202EBFD
:1005E000DC02C2F1200300FA03FC20FA02F001FA57
:1005F00003FE40EA0E0021FA02F11444C1E600BFF6
:1006000070B54FF0FF0C4CF4E06C1CEA11541DBFA8
:100610001CEA135594EA0C0F95EA0C0F00F0DEF873
:100620002C4481EA030621EA4C5123EA4C5350EA58
:10063000013518BF52EA033541F4801143F48013A9
:1006400038D0A0FB02CE4FF00005E1FB02E506F03A
:100650000042E0FB03E54FF00006E1FB03569CF08F
:10066000000F18BF4EF0010EA4F1FF04B6F5007F95
:1006700064F5407404D25FEA4E0E6D4146EB060607
:1006800042EAC62141EA55514FEAC52040EA5E5090
:100690004FEACE2EB4F1FD0C88BFBCF5E06F1ED83A
:1006A000BEF1004F08BF5FEA500E50F1000041EB71
:1006B000045170BD06F0004646EA010140EA02001E
:1006C00081EA0301B4EB5C04C2BFD4EB0C0541EA40
:1006D000045170BD41F480114FF0000E013C00F355
:1006E000AB8014F1360FDEBF002001F0004170BD79
:1006F000C4F10004203C35DA0C341BDC04F1140492
:10070000C4F1200500FA05F320FA04F001FA05F21D
:1007100040EA020001F0004221F0004110EBD370EA
:1007200021FA04F642EB06015EEA430E08BF20EA16
:10073000D37070BDC4F10C04C4F1200500FA04F3B9
:1007400020FA05F001FA04F240EA020001F000414B
:1007500010EBD37041F100015EEA430E08BF20EABE
:10076000D37070BDC4F1200500FA05F24EEA020E06
:1007700020FA04F301FA05F243EA020321FA04F035
:1007800001F0004121FA04F220EA020000EBD370EC
:100790005EEA430E08BF20EAD37070BD94F0000FEC
:1007A0000FD101F00046400041EB010111F4801F20
:1007B00008BF013CF7D041EA060195F0000F18BFD1
:1007C000704703F00046520043EB030313F4801F0D
:1007D00008BF013DF7D043EA0603704794EA0C0FC7
:1007E0000CEA135518BF95EA0C0F0CD050EA4106DD
:1007F00018BF52EA4306D1D181EA030101F000415A
:100800004FF0000070BD50EA410606BF1046194681
:1008100052EA430619D094EA0C0F02D150EA01368D
:1008200013D195EA0C0F05D152EA03361CBF1046CE
:1008300019460AD181EA030101F0004141F0FE416D
:1008400041F470014FF0000070BD41F0FE4141F4F1
:10085000780170BD70B54FF0FF0C4CF4E06C1CEAF1
:1008600011541DBF1CEA135594EA0C0F95EA0C0FA6
:1008700000F0A7F8A4EB050481EA030E52EA033561
:100880004FEA013100F088804FEA03334FF0805582
:1008900045EA131343EA12634FEA022245EA1115AF
:1008A00045EA10654FEA00260EF000419D4208BF60
:1008B000964244F1FD0404F5407402D25B084FEA0D
:1008C0003202B61A65EB03055B084FEA32024FF4B9
:1008D00080104FF4002CB6EB020E75EB030E22BF16
:1008E000B61A754640EA0C005B084FEA3202B6EBD6
:1008F000020E75EB030E22BFB61A754640EA5C0085
:100900005B084FEA3202B6EB020E75EB030E22BF14
:10091000B61A754640EA9C005B084FEA3202B6EB15
:10092000020E75EB030E22BFB61A754640EADC00D4
:1009300055EA060E18D04FEA051545EA16754FEA36
:1009400006164FEAC30343EA52734FEAC2025FEA54
:100950001C1CC0D111F4801F0BD141EA00014FF0E3
:1009600000004FF0004CB6E711F4801F04BF0143B4
:100970000020B4F1FD0C88BFBCF5E06F3FF6AFAED0
:10098000B5EB030C04BFB6EB020C5FEA500C50F160
:10099000000041EB045170BD0EF0004E4EEA1131E3
:1009A00014EB5C04C2BFD4EB0C0541EA045170BDEA
:1009B00041F480114FF0000E013C90E645EA060E2E
:1009C0008DE60CEA135594EA0C0F08BF95EA0C0F5C
:1009D0003FF43BAF94EA0C0F0AD150EA01347FF4A4
:1009E00034AF95EA0C0F7FF425AF104619462CE77B
:1009F00095EA0C0F06D152EA03353FF4FDAE1046DE
:100A0000194622E750EA410618BF52EA43067FF42E
:100A1000C5AE50EA41047FF40DAF52EA43057FF4BE
:100A2000EBAE12E74FF0FF3C06E000BF4FF0010CC9
:100A300002E000BF4FF0010C4DF804CD4FEA410C2D
:100A40007FEA6C5C4FEA430C18BF7FEA6C5C1BD0FA
:100A500001B050EA410C0CBF52EA430C91EA030F7B
:100A600002BF90EA020F0020704710F1000F91EAD8
:100A7000030F58BF994208BF90422CBFD8176FEAA6
:100A8000E37040F0010070474FEA410C7FEA6C5C74
:100A900002D150EA013C07D14FEA430C7FEA6C5C7B
:100AA000D6D152EA033CD3D05DF8040B704700BFA7
:100AB0008446104662468C461946634600E000BFF5
:100AC00001B5FFF7B7FF002848BF10F1000F01BDC7
:100AD0004DF808EDFFF7F4FF0CBF012000205DF892
:100AE00008FB00BF4DF808EDFFF7EAFF34BF012017
:100AF00000205DF808FB00BF4DF808EDFFF7E0FFB0
:100B000094BF012000205DF808FB00BF4DF808ED00
:100B1000FFF7CEFF94BF012000205DF808FB00BF67
:100B20004DF808EDFFF7C4FF34BF012000205DF849
:100B300008FB00BF4FEA410C7FEA6C5C02D150EA2F
:100B4000013C0AD14FEA430C7FEA6C5C02D152EAC5
:100B5000033C02D14FF0000070474FF00100704796
:100B60004FEA410212F5001215D211D56FF47873D5
:100B7000B3EB625212D94FEAC12343F0004343EA78
:100B8000505311F0004F23FA02F018BF4042704753
:100B90004FF00000704750EA013005D111F00040DD
:100BA00008BF6FF0004070474FF00000704700BF73
:100BB00053B94AB9002908BF00281CBF4FF0FF31C4
:100BC0004FF0FF3000F07AB9ADF1080C6DE904CEBA
:100BD00000F006F8DDF804E0DDE9022304B0704718
:100BE0002DE9F0478C460D460446089E002B51D156
:100BF0008A4217466DD9B2FA82FEBEF1000F0BD0C1
:100C0000CEF1200C01FA0EF520FA0CFC02FA0EF7D8
:100C10004CEA050C00FA0EF44FEA174A250CBCFB0F
:100C2000FAF81FFA87F90AFB18CC45EA0C4508FBCD
:100C300009F3AB420AD9ED1908F1FF3280F02381A4
:100C4000AB4240F22081A8F102083D44ED1AA4B263
:100C5000B5FBFAF00AFB105544EA054400FB09F91C
:100C6000A14509D9E41900F1FF3380F00A81A145BB
:100C700040F2078102383C44A4EB090440EA0840F2
:100C80000021002E61D024FA0EF40023346073603A
:100C9000BDE8F0878B4207D9002E54D0002186E8AA
:100CA00021000846BDE8F087B3FA83F1002940F03F
:100CB0008E80AB4202D3824200F2FA80841A65EB46
:100CC00003050120AC46002E3FD086E81010BDE899
:100CD000F08712B90127B7FBF2F7B7FA87FEBEF12A
:100CE000000F34D1EB1B3A0C1FFA87FC0121B3FB38
:100CF000F2F8250C02FB183345EA03450CFB08F318
:100D0000AB4207D9ED1908F1FF3002D2AB4200F235
:100D1000D1808046ED1AA3B2B5FBF2F002FB10556C
:100D200043EA05440CFB00FCA44507D9E41900F193
:100D3000FF3302D2A44500F2B8801846A4EB0C049D
:100D400040EA08409DE731463046BDE8F087CEF1E5
:100D5000200405FA0EF307FA0EF720FA04F83A0C0D
:100D600025FA04F448EA0308B4FBF2F14FEA184507
:100D700002FB11441FFA87FC45EA044501FB0CF312
:100D8000AB4200FA0EF409D9ED1901F1FF3080F001
:100D90008A80AB4240F2878002393D44EB1A1FFA49
:100DA00088F5B3FBF2F002FB103345EA034500FB84
:100DB0000CF3AB4207D9ED1900F1FF386FD2AB420B
:100DC0006DD902383D44EB1A40EA01418FE7C1F189
:100DD000200722FA07F88B4005FA01F448EA0303DA
:100DE00020FA07FE4FEA134CFD404EEA040EB5FB15
:100DF000FCF94FEA1E440CFB19551FFA83F844EA2C
:100E0000054509FB08F4AC4202FA01F200FA01FAC6
:100E100008D9ED1809F1FF3043D2AC4241D9A9F10C
:100E200002091D442D1B1FFA8EFEB5FBFCF00CFBC6
:100E300010554EEA054400FB08F8A04507D9E41810
:100E400000F1FF3529D2A04527D902381C4440EAD9
:100E50000940A4EB0804A0FB02894C45C6464D4658
:100E600015D312D056B1BAEB0E0364EB050404FAA5
:100E700007F7CB401F43CC40376074600021BDE8CA
:100E8000F0871846F8E69046E0E6C245EAD2B8EBAD
:100E9000020E69EB03050138E4E72846D7E7404630
:100EA00091E78146BEE7014678E702383C4445E7D2
:100EB000084608E7A8F102083D442BE7704700BF49
:100EC00038B50E4A0E4B054618784FF47A73B3FBCB
:100ED000F0F31068B0FBF3F000F0AAFD044658B937
:100EE0000F2D09D8024629464FF0FF3000F06CFD67
:100EF000044B20461D6038BD012038BD180000207D
:100F00000000002004000020074A08B5136843F0E1
:100F100010031360032000F045FD0020FFF7D0FF11
:100F200002F032FF002008BD00200240034A044BBB
:100F300011681B780B441360704700BF1007002036
:100F400000000020014B1868704700BF1007002008
:100F500038B50446FFF7F6FF631C1CBF054B1B7832
:100F6000054618BFE418FFF7EDFF401B8442FAD88E
:100F700038BD00BF0000002038B5036804469868FB
:100F800000F00300012801D0002038BD1A68D20704
:100F9000FAD59A6802F00D02012A1BD19A6842F034
:100FA00002029A6003221A60FFF7CCFF054623680D
:100FB0009B68DB07E8D5FFF7C5FF401B0228F6D981
:100FC000636C43F010036364A36C43F00103A364F8
:100FD000012038BD636C43F010036364A36C43F0DD
:100FE0000103A36438BD000038B503689A6802F0B5
:100FF0000302012A044604D11A68D20701D5002051
:1010000038BD99680E4A11420FD19A6842F0010228
:101010009A60FFF797FF054623681B68DB07EED44D
:10102000FFF790FF401B0228F6D9636C43F01003D2
:101030006364A36C43F00103A364012038BD00BFC7
:101040003F00008070B596B000230093044600284E
:1010500000F09180426CD20663D4436C002B2ED0FA
:10106000002023689A68D10002D59B689A000AD5AF
:10107000636C23F0120343F010036364A36C43F02A
:101080000103A3640120636CDB066ED400286CD1DD
:1010900023689D6815F0040567D1626C22F48172A3
:1010A00042F00202B3F1A04F6264784A65D09342E5
:1010B00066D14FF0A042019202F5407266E083646F
:1010C0000365C36480F8403002F07AFE23689B68B1
:1010D000DE00C5D42046FFF74FFF626CD506C0D4B2
:1010E0000028BED1636C23F4885323F0020343F03D
:1010F0000203636423689A6822F040529A609A68F7
:1011000042F080529A60624B624A1B68B3FBF2F273
:101110000A2353430093009B002BA1D0009B013B6B
:10112000F8E71846AFE793420CBF019101902CE01D
:10113000626C22F0220242F020026264A26C42F051
:101140000102A26452E022F480526DE04FF4E0729A
:101150006AE04FF4307267E04FF4807264E04FF45D
:10116000707261E04FF4A0725EE0636C23F01203D2
:1011700043F010036364012085E00192464A05E0D4
:101180004649474A8B42CED10192464A996801F0BE
:101190000301012902D11968CE070FD4019939B191
:1011A0008E6806F00306012E02D10968C90705D42E
:1011B0009168666821F4403131439160A16BA66863
:1011C000E2690129E16841EA060118BF4FF4805540
:1011D00041EA42312943656A012D07D1002AA7D18E
:1011E000A26A013A41EA424141F48031E26A012AAD
:1011F0001DD02A4DAB4203D005F58075AB42A2D17C
:10120000B2F5307FA2D0B2F5807FA2D0B2F5E07FF8
:10121000A2D0B2F58A5FA2D0B2F5845FA2D0B2F5B7
:10122000865F08BF4FF4C072256B294311439A684B
:1012300012F00C0F0BD1DA68A56922F4804222F07B
:101240000202DA60626B520042EA85321143DD68C5
:10125000154A2A4011432269D960012A05BF196B3A
:10126000226A1A6B02F1FF3206BF21F00F010A4316
:1012700022F00F021A630023A364636C23F00303BC
:1012800043F00103636416B070BD00BF000100505D
:101290001800002040420F000003005000040050DE
:1012A000000500500007005007C0F0FF38B5036884
:1012B0009D6815F00405044640F09D8090F840308C
:1012C000012B00F09880012380F84030FFF78CFE5E
:1012D000002840F08D80636C23F4706323F00103D9
:1012E00043F4807363642368B3F1A04F02D0434A90
:1012F000934217D1424A9268D10605D0B3F1A04F6C
:1013000002D0404A93421AD1626C22F48012626485
:10131000DA68950121D5626C22F4405242F4805281
:1013200062641AE0384A9268D206EDD0354A934298
:10133000EAD0626C42F480126264324A08E0626C65
:1013400042F4801262642D4A9342F6D14FF0A042DB
:10135000D268C2F34062002ADDD1626C12F480527E
:101360001CBFA26C22F00602A264002284F8402076
:10137000B3F1A04F4FF01C021A6002D01F4A9342F3
:1013800008D11F4A9168C90618D19A6842F0040230
:101390009A6038BD1C4A9268D206F6D01A4A926802
:1013A00002F01F02052AF0D0174A926802F01F02CD
:1013B000092AEAD0134A9342E7D038BDB3F1A04FCF
:1013C00002D00E498B42E9D1926802F01F02052A31
:1013D000DBD0B3F1A04F02D0084A9342E4D1084ACF
:1013E000926802F01F02092ACFD0B3F1A04FE0E7C4
:1013F00084F8405038BD022038BD00BF00010050C5
:101400000003005000040050000700502DE9F04197
:1014100046690368082E04460F4627D0B3F1A04F53
:1014200015D04649464A4748834208BF0A46916854
:1014300011F01F010DD1DA68D50716D5636C84F859
:10144000401043F0200363640120BDE8F0813B4A73
:10145000EDE7926812F4404F07D0636C43F020032D
:101460006364002384F84030EEE70C26B3F1A04F0C
:1014700002D0344A934234D1304A9268D00605D023
:10148000B3F1A04F02D0304A934233D1DD68FFF769
:1014900059FD804623681A68164232D0626C42F4C5
:1014A00000726264DA6812F4406F13D1A80411D498
:1014B0001A6811070ED59A6812F0040F626C34D1C5
:1014C00022F480726264626CD20403D4626C42F0D3
:1014D0000102626415F480400CBF1E600020BDE86C
:1014E000F081174A9268D106D0D0174A9342CDD0E6
:1014F0001346CBE713498B4214BF13464FF0A0436A
:10150000C4E77A1CC7D04FB9636C43F0040363642B
:10151000002384F840300320BDE8F081FFF712FD7E
:10152000A0EB08008742B5D2EEE742F020026264E9
:10153000A26C42F00102A264CCE700BF000300509D
:101540000007005000010050000400500368186CB0
:1015500070470000F0B597B00023009390F840303A
:10156000012B054600F063812B68CE689A68012044
:10157000520785F8400000F1558148680C6804283E
:101580004FF0060231D842431F6B1F20904027EADC
:10159000000004FA02F202431A639A6812F00C0F78
:1015A00062D1092C4FEA44028F6846D922449869D7
:1015B0001E3A4FF0070E0EFA02FE20EA0E0007FA5E
:1015C00002F202439A61DA68C2F3C10E4A694FEA35
:1015D0004E0E02FA0EFE0A69013A4FEA846C032AA3
:1015E00073D8DFE802F037515C6709280BD8424313
:1015F0005F6B1E3A1F20904027EA000004FA02F2B7
:1016000002435A63C9E70E280BD842439F6B3C3A0A
:101610001F20904027EA000004FA02F202439A6376
:10162000BBE74243DF6B5A3A1F20904027EA000095
:1016300004FA02F20243DA63AFE7586922444FF03A
:10164000070E0EFA02FE20EA0E0007FA02F202432B
:101650005A61B8E71A6E834F174047EA0C0242F00E
:10166000004242EA0E021A669A6802F00302012A58
:1016700040F0DF801A68D70740F1DB8000200023AC
:1016800085F8403017B0F0BD5A6E764F174047EAE4
:101690000C0242F0004242EA0E025A66E4E79A6EF9
:1016A0007048104040EA0C0242F0004242EA0E024A
:1016B0009A66D9E7D86E6B4A024042EA0C0242F0C1
:1016C000004242EA0E02DA66CEE71A6E02F0F842F3
:1016D000624502BF1A6E22F000421A665A6E02F08C
:1016E000F842944502BF5A6E22F000425A669A6E42
:1016F00002F0F842944502BF9A6E22F000429A66C8
:10170000DA6E02F0F8429445AED1DA6E22F0004271
:10171000D9E7D3F8B0200121A14022EA0102C3F8A1
:10172000B020B3F1A04F1ED04F49504A50488342D9
:1017300008BF0A46102C18D1916811F4000F9DD1F2
:10174000B3F1A04F4A491CD1019124E0601C5969B2
:1017500000EB40000722824021EA020106FA00F273
:101760000A435A61DDE7404AE4E7112C03D191684E
:1017700011F0807FE3E7122C80D1916811F4800F83
:10178000DDE78B4202D14FF0A041DDE739493A480D
:101790008B422BD10190996801F00301012902D1FC
:1017A0001968C80738D4019939B1886800F0030076
:1017B000012802D10968C9072ED4102C1AD1B3F11F
:1017C000A04F7FF45BAF936843F4000393602B4B0F
:1017D0002B4A1B68B3FBF2F20A2353430093009B8E
:1017E000002B3FF44BAF009B013BF7E7834218BF50
:1017F0000021A9E7112C08D1B3F1A04F7FF43EAF2F
:10180000936843F08073936038E7122C7FF436AF0F
:10181000936843F48003F6E76B6C43F020036B643A
:1018200001202CE76B6C43F020036B6427E7022058
:1018300028E7012E7FF46DAFD3F8B020A640164301
:10184000092CC3F8B0608E6880D904EB4402996912
:101850001B3A0720904021EA000106FA02F20A43EF
:101860009A615EE700F0FF8300030050000700501C
:101870000001005000040050000500501800002036
:1018800040420F00F0B50268414BB2F1A04F97B053
:1018900001D1019309E09A4202D14FF0A043F8E749
:1018A0003C4B3D4C9A4230D10194019C002C58D0C5
:1018B00090F84030012B56D0012380F840309368D7
:1018C0005B0743D4A3685F0740D4B2F1A04F20D098
:1018D000324D334B2E4EB24208BF2B460D68D5B168
:1018E0004E68D3F808E03746466B47EA46362EF492
:1018F00060473E439E60966806F00306012E34D191
:101900001268D60731D5002325E0A24218BF002374
:10191000BFE7224BE2E7996821F460419960916842
:1019200001F00301012902D11268D107EBD4A268AA
:1019300002F00302012A02D12268D207E3D49A6896
:1019400022F4716222F00F029A60DCE7436C43F0EC
:10195000200343640123002280F84020184617B07A
:10196000F0BD0123FAE70223F8E7A26802F00302C0
:10197000012A02D12268D407C5D49A68896822F462
:1019800071620D4322F00F0215439D60BBE700BF5B
:1019900000010050000400500005005000030050FA
:1019A00000070050074AD36823F4E0631B041B0CB4
:1019B00043F0BF63000243F4003300F4E0600343EC
:1019C000D360704700ED00E0174B30B5DC68C4F31E
:1019D0000224C4F10703251D042B28BF0423062D70
:1019E0004FF0010505FA03F303F1FF338CBF033C0D
:1019F00000241940A14005FA04F4013C22400028CB
:101A000042EA01024FEA0212AFBF00F1604000F06B
:101A10000F00064BD2B2A5BF00F56140D2B21A54F6
:101A200080F8002330BD00BF00ED00E014ED00E0C1
:101A30000138B0F1807F0AD2064B074A5860F02186
:101A400082F823100020072298601A607047012056
:101A5000704700BF10E000E000ED00E02DE9F74F17
:101A6000D1F80080DFF89091614A002338FA03F43E
:101A700002D103B0BDE8F08F4FF0010E0EFA03FE65
:101A800018EA0E0600F0A6804C6824F01007022F1A
:101A900016D14FEAD30A00EB8A0A03F0070BDAF8F3
:101AA00020504FEA8B0B4FF00F0C0CFA0BFC25EA81
:101AB0000C0C0D6905FA0BF545EA0C05CAF8205027
:101AC0004FEA430A0325D0F800B005FA0AF5ED43C2
:101AD00004F0030C0BEA050B0CFA0AFC013F4CEA7C
:101AE0000B0C012FC0F800C011D8876807EA050B5E
:101AF000CF6807FA0AFC4CEA0B078760476827EAB9
:101B00000E0EC4F300179F4047EA0E074760C768F0
:101B10003D408F6807FA0AF73D43C560E50059D597
:101B2000D9F8185045F00105C9F81850D9F81850DF
:101B300023F0030707F1804705F0010507F580371B
:101B4000019503F0030C019DBD684FEA8C0C4FF02A
:101B50000F0E0EFA0CFEB0F1904F25EA0E0E3BD0A0
:101B6000244DA8423AD005F58065A84238D005F545
:101B70008065A84236D005F58065A84234D005F5C9
:101B80008065A84232D005F58065A84214BF0725BC
:101B9000062505FA0CF545EA0E05BD601568F74304
:101BA00014F4803F0CBF3D4035431560556814F474
:101BB000003F0CBF3D4035435560956814F4801FCD
:101BC0000CBF3D4035439560D568A40254BF3D40ED
:101BD0003543D560013349E70025DAE70125D8E729
:101BE0000225D6E70325D4E70425D2E70525D0E76B
:101BF000000401400004004800100240036919423B
:101C000014BF0120002070470AB1816170478162D2
:101C1000704703689A69910744BF00229A629A69E3
:101C2000D2075EBF9A6942F001029A61704730B5EF
:101C3000039C05682343640D04F4806444F07F74BE
:101C400044F458346868C1F3090144F47F741943BB
:101C500044F0030441EA024120EA0404214369609C
:101C600030BD2DE9F041069F0446884616461D46C4
:101C70002268936938EA03030CBF01230023B342AF
:101C800002D00020BDE8F0816B1CF2D055B92023B2
:101C900084F84130002384F8423084F84030032037
:101CA000BDE8F081FFF74EF9C01B8542E0D2EEE7B8
:101CB000036870B50446986910F010000D4616468A
:101CC00012D170BD691C10D04DB9202384F8413069
:101CD000002384F8423084F84030032070BDFFF7C1
:101CE00031F9801B8542F0D3236899698A06E9D5CA
:101CF00010222025DA612046DD61FFF78AFF226885
:101D0000536823F0FF7323F48B3323F4FF7323F022
:101D10000103536004236364002384F8415084F872
:101D2000403084F84230012070BD70B504460D4645
:101D3000164623689B699B0701D5002070BD32467B
:101D400029462046FFF7B4FFB0B96A1CF1D06DB93F
:101D5000636C43F020036364202384F84130002344
:101D600084F8423084F84030032070BDFFF7EAF871
:101D7000801B8542DDD2EBE7012070BD70B50446C3
:101D80000D46164623689B699B0601D5002070BD51
:101D9000324629462046FFF78BFFA0B96DB9636C28
:101DA00043F020036364202384F84130002384F847
:101DB000423084F84030032070BDFFF7C3F8801B29
:101DC0008542DFD2EBE7012070BD10B50446002844
:101DD0004AD090F8413003F0FF021BB980F8402050
:101DE00002F01CF8242384F841302368E1681A6863
:101DF00022F001021A60626822F070621A619A6829
:101E0000012922F400429A60A26824D142F40042DF
:101E10009A605A68616942F0007242F400425A6066
:101E2000DA6822F40042DA6022690A43A16942EAD0
:101E30000122DA60216AE2690A431A601A6842F0F4
:101E400001021A6000202023606484F8413020637E
:101E500084F8420010BD42F4044202299A6004BF93
:101E60004FF400625A60D4E7012010BD2DE9F7431A
:101E7000984690F84130202B04460E46914640F09B
:101E8000898090F84030012B00F08480012780F891
:101E90004070FFF757F81923054600903A464FF473
:101EA00000412046FFF7DDFE002848D1212384F8B9
:101EB0004130102384F842306064A4F82A80638D96
:101EC000C4F824909BB2FF2B6063334B25D9FF22CB
:101ED000228500934FF0807331462046FFF7A7FE1E
:101EE000638D0A999BB22A462046F3B9FFF746FF55
:101EF000F0B923682021D9615A6822F0FF7222F4D8
:101F00008B3222F4FF7222F001025A6084F84110F1
:101F100084F8400084F842000EE0628D009392B293
:101F200022854FF00073D2B2D6E7FFF7FEFE40B134
:101F3000636C042B03D1012003B0BDE8F0830320C0
:101F4000FAE7636A2268591C61621B789362638DA9
:101F5000228D013B013A9BB292B263852285002A11
:101F6000BED1638D9BB2002BBAD000950A9B802115
:101F70002046FFF776FE0028E1D1638D9BB2FF2B50
:101F800003D9FF2222850090A4E7628D009092B2CF
:101F90002285C6E70220CFE7002000802DE9FF4719
:101FA0001D460023039390F84130202B04469046B1
:101FB0007CD103689B6913F4004377D190F84020EB
:101FC000012A73D0012280F84020C1F3090624229F
:101FD00080F8412046F420594364E3682268012BCD
:101FE00006BF46F0007343F400534B465360FEF7C0
:101FF000A9FF074623689A69910612D59A6912F0DB
:1020000010022AD100972B4620212046FFF729FEF7
:10201000C8B103201EE0FEF795FFC01B8542E9D240
:102020000AE09A69D206E9D494F84120A02AE5D0C2
:10203000681CE0D0002DEED1202384F8413000232D
:1020400084F84030E5E722682023D36184F84130EA
:1020500084F8400004B0BDE8F087002200972B46CA
:1020600020212046FFF7FDFD02460028D1D123683C
:1020700010214FF0200AD961C3F81CA00399481C15
:10208000414503900ED1596841F480415960204682
:1020900000972B465146FFF7E4FD0028B9D123688D
:1020A000C3F81CA0039B984597D8C5E70220D1E749
:1020B00090F84120D2B2202A10B51DD190F84030BE
:1020C000012B19D0242380F8413003681C6824F0C8
:1020D00001041C601C6824F480541C601C682143AB
:1020E0001960196841F001011960002380F841204E
:1020F00080F84030184610BD022010BD10B590F891
:102100004140E4B2202C1CD190F84030012B18D073
:10211000242380F8413003681A6822F001021A6013
:102120001A6822F4706242EA012119601A6842F0CA
:1021300001021A60002380F8414080F840301846C0
:1021400010BD022010BD00002DE9F347054618B967
:10215000012002B0BDE8F0870368DF0711D42B68C7
:102160009E0700F188802B681C0700F1FC802B681B
:10217000580700F14581AA69002A40F0DC8100205F
:10218000E7E7BD4C636803F00C03042B0AD06368D7
:1021900003F00C03082B19D1636803F4C033B3F5C3
:1021A000803F13D14FF4003393FAA3F2216893FADE
:1021B000A3F3B3FA83F303F01F03012202FA03F33C
:1021C0000B42CCD06B68002BC9D1C1E76B68B3F56B
:1021D000803F1ED1236843F480332360FEF7B2FEB4
:1021E0004FF400368046012796FAA6F3226896FA45
:1021F000A6F3B3FA83F303F01F0307FA03F31342C2
:10220000ADD1FEF79FFEA0EB08006428ECD90320B7
:102210009FE70BBB236823F480332360236823F4F8
:1022200080232360FEF78EFE4FF4003680460127A0
:1022300096FAA6F3226896FAA6F3B3FA83F303F0AC
:102240001F0307FA03F3134289D0FEF77BFEA0EBCE
:1022500008006428ECD9DAE7B3F5A02F236803D18E
:1022600043F480232360B5E723F48033236023689D
:1022700023F48023B1E7804C636813F00C0F0AD07D
:10228000636803F00C03082B25D1636803F4C033A3
:10229000B3F5004F1FD1022393FAA3F2216893FAFA
:1022A000A3F3B3FA83F303F01F03012202FA03F34B
:1022B0000B4203D0EB6893427FF44AAF2168F823C6
:1022C00093FAA3F3B3FA83F22B69934021F0F80257
:1022D0001343236047E7EA6801260AB396FAA6F398
:1022E000B3FA83F303F1845303F584139B000227AD
:1022F0001E60FEF727FE804697FAA7F3226897FA3A
:10230000A7F3B3FA83F303F01F0306FA03F31342B0
:10231000D4D1FEF717FEA0EB08000228ECD976E72F
:1023200096FAA6F3B3FA83F303F1845303F5841307
:102330009B0002271A60FEF705FE804697FAA7F376
:10234000226897FAA7F3B3FA83F303F01F0306FAA0
:1023500003F313423FF407AFFEF7F4FDA0EB0800D0
:102360000228EBD953E76A69434E444901241AB362
:1023700094FAA4F3B3FA83F30B449B0002271C6086
:10238000FEF7E0FD804697FAA7F397FAA7F397FACE
:10239000A7F3726A97FAA7F3B3FA83F303F01F0364
:1023A00004FA03F313427FF4E2AEFEF7CBFDA0EB99
:1023B00008000228E7D92AE794FAA4F3B3FA83F3D2
:1023C0000B449B0002271A60FEF7BCFD804697FA7B
:1023D000A7F397FAA7F397FAA7F3726A97FAA7F306
:1023E000B3FA83F303F01F0304FA03F313423FF439
:1023F000BEAEFEF7A7FDA0EB08000228E7D906E76E
:102400001D4CE369D90034D4E36943F08053E361A0
:10241000E36903F080530193019B0126184F3B6849
:10242000DA052FD5AB68012B3DD1236A43F00103B8
:102430002362FEF787FD02278246B9464FF0010866
:1024400097FAA7F397FAA7F3002B6CD0226A99FAB0
:10245000A9F3B3FA83F303F01F0308FA03F313425B
:1024600058D0002E3FF487AEE36923F08053E36138
:1024700081E60026D2E700BF0010024020819010C4
:10248000007000403B6843F480733B60FEF75AFDE8
:1024900080463B68DB05C5D4FEF754FDA0EB080081
:1024A0006428F6D9B3E63BBB236A23F00103236219
:1024B000236A23F004032362FEF744FD02278246C9
:1024C000B9464FF0010897FAA7F397FAA7F373B349
:1024D000226A99FAA9F3B3FA83F303F01F0308FA07
:1024E00003F31342BDD0FEF72DFD41F28833A0EB7C
:1024F0000A009842E7D98AE6052B236A03D143F004
:102500000403236291E723F001032362236A23F08B
:1025100004038DE7FEF716FD41F28833A0EB0A00B5
:1025200098428DD973E697FAA7F3626A8FE797FA14
:10253000A7F3626ACDE7444C636803F00C03082BF1
:102540003FF406AE022A4FF0807358D193FAA3F3FA
:10255000B3FA83F303F1845303F584139B00002241
:102560001A60FEF7EFFC4FF000778046012697FADD
:10257000A7F3226897FAA7F3B3FA83F303F01F03D4
:1025800006FA03F3134233D1E36A6A6A23F00F03B6
:102590001343E36262682B6AE96922F476120B4303
:1025A000134363604FF0807393FAA3F3B3FA83F39A
:1025B00003F1845303F584139B004FF000751E60F4
:1025C000FEF7C0FC0126074695FAA5F3226895FAA6
:1025D000A5F3B3FA83F303F01F0306FA03F31342E0
:1025E0007FF4CDADFEF7AEFCC01B0228ECD90EE6A1
:1025F000FEF7A8FCA0EB08000228B8D907E693FA7A
:10260000A3F3B3FA83F303F1845303F584139B001C
:1026100000221A60FEF796FC4FF00075074601266F
:1026200095FAA5F3226895FAA5F3B3FA83F303F0BC
:102630001F0306FA03F313423FF4A1ADFEF782FC39
:10264000C01B0228ECD9E2E50010024011494B689A
:1026500003F00C02082A1AD14FF4701292FAA2F277
:102660000F20B2FA82F2C96A90FAA0F0B0FA80F0B4
:1026700001F00F0103F47013D340C140064A07482C
:10268000415C0748B0FBF1F1D05C48437047044817
:10269000704700BF00100240A88D0008B88D0008E8
:1026A00000127A002DE9F0410D46044610B90120D0
:1026B000BDE8F0814C4A136803F007038B422ED328
:1026C0002268910736D4D2073CD4474A136803F0F6
:1026D00007039D4275D32268444D12F0040F7CD14C
:1026E000130706D56B68226923F4605343EAC203DB
:1026F0006B60FFF7ABFF6B68F02292FAA2F2B2FABE
:1027000082F203F0F003D340394AD35CD840394B0E
:1027100018600020FEF7D4FB0020BDE8F0811368AC
:1027200023F007030B431360136803F00703994278
:10273000BDD1C5E72D49A0684B6823F0F0030343E2
:102740004B60C0E76268294E012A27D14FF400335D
:1027500093FAA3F1316893FAA3F3B3FA83F303F086
:102760001F0302FA03F30B42A1D0736823F00303A3
:102770001A437260FEF7E6FB41F288380746736839
:10278000626803F00C03B3EB820F9ED0FEF7DAFB16
:10279000C01B4045F3D90320BDE8F081022A0CBFDD
:1027A0004FF00073022393FAA3F1306893FAA3F376
:1027B000B3FA83F303F01F03012101FA03F3034289
:1027C000D2E7136823F007032B431360136803F069
:1027D00007039D427FF46BAF7DE76B68E16823F4EC
:1027E000E0630B436B607BE7002002400010024077
:1027F000568F000818000020084B4FF4E0625B6819
:1028000092FAA2F2B2FA82F203F4E063D340044AED
:10281000D35C044A1068D840704700BF00100240E3
:10282000668F000818000020084B4FF460525B6868
:1028300092FAA2F2B2FA82F203F46053D340044A4D
:10284000D35C044A1068D840704700BF00100240B3
:10285000668F00081800002003682DE9F347DF03A6
:10286000044623D59B4DEB69DE0000F1D780EB6970
:1028700043F08053EB61EB6903F080530193019BBC
:102880000126954F3B68D80540F1CA802B6A13F4A6
:10289000407340F0DA802B6A626823F4407313437C
:1028A0002B621EB1EB6923F08053EB612068C307F4
:1028B00006D5884AA168136B23F003030B43136307
:1028C000870706D5834AE168136B23F440330B4333
:1028D0001363460706D57F4A2169136B23F440230F
:1028E0000B431363850606D57A4AE169136B23F01F
:1028F00010030B431363810306D5764A616D536859
:1029000023F480030B435360420606D5714A216AC3
:10291000136B23F020030B431363430306D56D4A67
:10292000616A136B23F040030B431363070706D55B
:10293000684A6169136B23F440130B431363C606A3
:1029400006D5644AA169136B23F440030B43136358
:10295000850506D55F4A216B536823F400030B43BA
:102960005360010606D55B4AA16AD36A23F4F87363
:102970000B43D362C20506D5564AE16AD36A23F4F3
:1029800078530B43D362C30406D5524A616B136B71
:1029900023F480730B431363870406D54D4A216CDF
:1029A000136B23F400730B431363C60206D5494A25
:1029B000A16B136B23F080730B431363850206D561
:1029C000444AE16B136B23F000730B431363410222
:1029D00006D5404A616C136B23F480630B43136389
:1029E000020206D53B4AA16C136B23F400630B4330
:1029F0001363C30106D5374AE16C136B23F400530C
:102A00000B43136310F000701CD0324A216D136B1E
:102A100023F400430B431363002013E0002630E748
:102A20003B6843F480733B60FEF78CFA80463B685A
:102A3000D9053FF52BAFFEF785FAA0EB0800642817
:102A4000F5D9032002B0BDE8F087626802F4407255
:102A500093423FF420AF296A4FF4803321F4407051
:102A600093FAA3F2DFF874E0B2FA82F272449200B1
:102A70000127176093FAA3F3B3FA83F373449B001F
:102A800000221A60CA0728627FF505AFFEF75AFADE
:102A90004FF002088246C14698FAA8F398FAA8F3C4
:102AA000A3B12A6A99FAA9F3B3FA83F303F01F03D7
:102AB00007FA03F313427FF4EEAEFEF743FA41F256
:102AC0008833A0EB0A009842E6D9BAE798FAA8F34F
:102AD0006A6AE7E700100240007000400081901031
:102AE000324A0368904212D0B0F1804F0FD0A2F565
:102AF000943290420BD002F58062904207D002F5EA
:102B00009632904203D002F5E052904215D14A68C5
:102B100023F070031343254A90421DD0B0F1804F3B
:102B20001AD0A2F59432904216D002F580629042FB
:102B300012D002F5963290420ED01D4A90420BD030
:102B400002F58062904207D002F58062904203D085
:102B500002F50062904203D1CA6823F44073134324
:102B60004A6923F08003134303608B68C3620B68D8
:102B700083620E4B984213D003F5006398420FD046
:102B800003F5406398420BD003F58063984207D069
:102B900003F58063984203D003F50063984201D1A6
:102BA0000B69036301234361704700BF002C0140A0
:102BB0000040014010B50446A0B190F83D3003F04C
:102BC000FF021BB980F83C2001F05EF9022384F873
:102BD0003D302068211DFFF783FF012384F83D303D
:102BE000002010BD012010BD036A23F00103036221
:102BF000036A70B5446882690D6822F4803222F05D
:102C000073022A438D6823F002032B431F4DA84211
:102C100013D005F50065A8420FD005F54065A84220
:102C20000BD005F58065A84207D005F58065A84260
:102C300003D005F50065A84222D1CD6823F0080332
:102C40002B43124DA84223F0040313D005F5006571
:102C5000A8420FD005F54065A8420BD005F5806568
:102C6000A84207D005F58065A84203D005F50065A8
:102C7000A84205D124F440758E694C6934432C4335
:102C8000446082614A684263036270BD002C014067
:102C9000036A23F010030362036A70B54468826913
:102CA0000D6822F0807222F4E64242EA05228D6825
:102CB00023F0200343EA05131A4DA84207D005F577
:102CC0000065A84203D005F5E055A8420DD1CD68B6
:102CD00023F0800343EA0513124DA84223F040037A
:102CE00012D005F50065A8420ED00F4DA8420BD0BA
:102CF00005F58065A84207D005F58065A84203D098
:102D000005F50065A84206D124F440658E694C693A
:102D1000344345EA8404446082614A688263036202
:102D200070BD00BF002C014000400140036A23F445
:102D300080730362036A70B54468C2690D6822F447
:102D4000803222F073022A438D6823F4007343EA31
:102D500005231A4DA84207D005F50065A84203D007
:102D600005F5E055A8420DD1CD6823F4006343EA90
:102D70000523124DA84223F4806312D005F50065A7
:102D8000A8420ED00E4DA8420BD005F58065A84292
:102D900007D005F58065A84203D005F50065A84277
:102DA00006D124F440558E694C69344345EA041435
:102DB0004460C2614A68C263036270BD002C014076
:102DC00000400140036A23F480530362036A30B574
:102DD0004468C2690D6822F0807222F4E64242EA39
:102DE00005228D6823F4005343EA0533104DA842B1
:102DF00013D005F50065A8420FD005F54065A8423F
:102E00000BD005F58065A84207D005F58065A8427E
:102E100003D005F50065A84204D14D6924F480442F
:102E200044EA85144460C2614A680264036230BDAA
:102E3000002C0140036A23F480330362036A30B537
:102E40004468426D0D6822F4803222F070022A43F9
:102E50008D6823F4003343EA0543114DA84213D093
:102E600005F50065A8420FD005F54065A8420BD0D6
:102E700005F58065A84207D005F58065A84203D016
:102E800005F50065A84204D14D6924F4803444EA74
:102E90000524446042654A688265036230BD00BF14
:102EA000002C0140036A23F480130362036A30B5E7
:102EB0004468426D0D6822F0807222F4E04242EADA
:102EC00005228D6823F4001343EA0553104DA842F0
:102ED00013D005F50065A8420FD005F54065A8425E
:102EE0000BD005F58065A84207D005F58065A8429E
:102EF00003D005F50065A84204D14D6924F480246F
:102F000044EA8524446042654A68C265036230BD74
:102F1000002C014038B590F83C30012B04460D469A
:102F20004FF0020010D00123082A84F83C3084F8C6
:102F30003D0043D009D8FAB1042A2ED00123002045
:102F400084F83D3084F83C0038BD102A47D0142A5C
:102F500056D00C2AF2D12068FFF734FF2368296984
:102F6000DA6942F40062DA61DA6922F48062DA61D5
:102F7000DA6942EA012230E02068FFF735FE236873
:102F800029699A6942F008029A619A6922F004025A
:102F90009A619A690A439A61D0E72068FFF778FE40
:102FA000236829699A6942F400629A619A6922F455
:102FB00080629A619A6942EA0122ECE72068FFF791
:102FC000B5FE23682969DA6942F00802DA61DA6934
:102FD00022F00402DA61DA690A43DA61AEE72068B6
:102FE000FFF728FF236809695A6D42F008025A6505
:102FF0005A6D22F004025A655A6D0A435A659DE7DC
:103000002068FFF74FFF236809695A6D42F4006298
:103010005A655A6D22F480625A655A6D42EA01225D
:10302000ECE7000090F83C30012B30B520D002686E
:10303000104D53689468AA4207D005F50065AA426E
:1030400003D005F5E055AA4203D14D6823F470037F
:103050002B430D68896823F070032B4324F0800410
:10306000536021430023916080F83C30184630BD06
:10307000022030BD002C014090F83C30012B10B5EF
:103080003CD0CB688A681E4C23F4407313434A68D3
:1030900023F4806313430A6823F4006313430A692B
:1030A00023F4805313434A6923F4005313438A6A79
:1030B00023F4404313438A6923F4702343EA024311
:1030C0000268A24207D004F50064A24203D004F5CE
:1030D000E054A2420CD14C6A23F4700343EA045337
:1030E000CC69096A23F08073234323F000730B43F8
:1030F0005364002380F83C30184610BD022010BDF8
:10310000002C014038B5044605682169A268C369EE
:1031100028680A4361690A4377491A4301400A4310
:103120002A606A68E168206A22F440520A436A60B1
:10313000A968A26921F4306102430A43AA606F4A78
:10314000954212D102F558426D49126B02F003020A
:10315000B3F5004F8A5C66D0082A19D8DFE802F080
:10316000C2929E18A9181818AC00664A954224D13C
:1031700002F5E632126B02F44032B2F5803F00F005
:10318000A08007D8002A00F0AA80B3F5004F76D0BF
:10319000012038BDB2F5003F00F09980B2F5403F04
:1031A000F3D1B3F5004F79D16068430803F5740398
:1031B00003F51053B3FBF0F354E0534A95420ED19C
:1031C00002F5E432126B02F44022B2F5802F78D07F
:1031D000D8D9B2F5002F7AD0B2F5402FE0E74B4AAC
:1031E00095420ED102F5E232126B02F44012B2F5B2
:1031F000801F66D0C6D9B2F5001F68D0B2F5401F57
:10320000CEE7434A9542C0D102F5E032126B02F498
:103210004002B2F5800F54D0B4D9B2F5000F56D0A9
:10322000B2F5400FBCE7082A29D801A353F822F0D1
:103230005532000879320008A93100087F320008B1
:10324000C93200087F3200087F3200087F32000850
:10325000D5320008FFF7D0FA61684A0802EB400354
:10326000B3FBF1F39BB2002023F00F022168C3F3FC
:1032700042031343CB6038BDFFF7D6FAECE70120D9
:103280000023F1E7FFF7D0FA636800EB5300B0FBCF
:10329000F3F01A4B80B2D860002038BD6268530842
:1032A00003F5F40303F59053B3FBF2F39BB2EB6029
:1032B000F2E7FFF7CBF917E06268530803F5004324
:1032C000F2E7B3F5004FF4D1FFF7C0F9C4E7B3F567
:1032D000004FF1D16068430803F580336AE7B3F526
:1032E000004FB7D0FFF788FA636800EB5300B0FBDC
:1032F000F3F080B2E860CFE7F369FFEF00380140F8
:10330000C88D00080044004000480040004C0040C8
:1033100000500040436ADA0710B506D50168846A98
:103320004A6822F4003222434A609C0706D50168AD
:10333000C46A4A6822F4803222434A60590706D59B
:103340000168046B4A6822F4802222434A601A070B
:1033500006D50168446B4A6822F4004222434A6061
:10336000DC0606D50168846B8A6822F48052224309
:103370008A60990606D50168C46B8A6822F40052F7
:1033800022438A605A060FD50168046C4A6822F409
:1033900080122243B4F5801F4A6005D14A68446C0C
:1033A00022F4C00222434A601B0606D50268816CE3
:1033B000536823F400230B43536010BD2DE9F04103
:1033C000069D04460F46164698462168CA6937EAA4
:1033D00002030CBF01220022B24202D00020BDE84D
:1033E000F0816B1CF2D09DB923681A6822F4D07268
:1033F0001A609A6822F001029A60202384F86930EA
:1034000084F86A30002384F868300320BDE8F08136
:10341000FDF798FDA0EB08008542D6D2E4E72DE940
:10342000F3411F4690F86930202B04460D46904624
:103430004CD1002948D0002A46D090F86830012BA2
:1034400044D0012380F868300023C366212380F82C
:103450006930FDF777FDA4F850800646A4F8528045
:10346000B4F8522092B262B9009733464021204608
:10347000FFF7A4FF98B9202384F8693084F8680026
:103480000EE0B4F852300097013B9BB2A4F85230E2
:103490000022334680212046FFF790FF18B1032019
:1034A00002B0BDE8F081A3682268B3F5805F07D160
:1034B00023692BB935F8023BC3F308031385CFE723
:1034C0002B7813850135CBE70120E9E70220E7E7F8
:1034D0002DE9F341984690F86A30202B04460D46BA
:1034E000164660D100295CD0002A5AD090F8683086
:1034F000012B58D0012380F868300023C3662223B3
:1035000080F86A30FDF71EFDA368A4F85860B3F593
:10351000805F0746A4F85A6015D123698BB940F241
:10352000FF13A4F85C30B4F85C60B4F85A0080B2C1
:10353000B8B9202384F86A3084F8680002B0BDE886
:10354000F081FF23EDE723B92369002BF9D07F2316
:10355000E7E7B3F1805FE6D12369002BF7D03F2383
:10356000DFE7B4F85A30CDF80080013B9BB2A4F8F5
:103570005A3000223B4620212046FFF71FFFA0B90A
:10358000A368B3F5805F236806D1226922B99B8CBA
:10359000334025F8023BC8E79B8C33402B70013544
:1035A000C3E70120CAE70220C8E70320C6E773B5D6
:1035B00004460026C666FDF7C5FC23681B681A078B
:1035C000054617D423681B685B070AD56FF07E4356
:1035D000009300222B464FF480012046FFF7EEFEB9
:1035E000A0B92023002084F8693084F8680084F8AA
:1035F0006A300CE06FF07E430093324603464FF48E
:1036000000112046FFF7DAFE0028DBD0032002B0CD
:1036100070BD10B5044660B390F8693003F0FF0246
:103620001BB980F8682000F069FC2268242384F824
:103630006930136823F0010313602046FFF762FD31
:10364000012816D0636A13B12046FFF763FE236892
:103650005A6822F490425A609A6822F02A029A60CC
:103660001A6842F0010220461A60BDE81040FFF7D8
:103670009EBF012010BD000013B50446FCF7B0FD4D
:103680000A230093224683B2E4210248FEF7EEFBB0
:1036900002B010BD5007002010B50C4C0C48236838
:1036A000132BCCBF142302332360216800F03EFDAE
:1036B00022680849084800F0B9FD0748FFF7DCFF19
:1036C0006420BDE81040FDF743BC00BFAC060020FD
:1036D000C48E0008D98E0008B006002010B50F4C2B
:1036E0000F48236813F1130FA1BF0E4A023B126863
:1036F0002360BABF6FF0130323605363216800F0A7
:1037000015FD22680849094800F090FD0748FFF7B9
:10371000B3FF6420BDE81040FDF71ABCAC060020E2
:10372000AF8E000860080020D98E0008B006002087
:1037300008B50548FFF7A0FF044800F06FFD6420BE
:10374000BDE80840FDF704BC858E0008A18E000886
:1037500038B5214C214D40214FF09040FEF74EFAF4
:1037600018B1BDE83840FFF797BF80214FF0904077
:10377000FEF744FA18B1BDE83840FFF7AFBF10219B
:103780002046FEF73BFA18B1BDE83840FFF7D0BF3E
:1037900080212846FEF732FAE8B100F021F84021F6
:1037A0004FF09040FEF72AFA0028DAD180214FF03E
:1037B0009040FEF723FA0028DDD110212046FEF7C5
:1037C0001DFA0028E0D14FF480612046FEF716FA7A
:1037D0000028E2D0BFE738BD0004004800080048D8
:1037E000F7B55148FDF762FD10B1504800F016FDE5
:1037F0000A214D484E4D4F4CFDF708FE002864D07D
:103800004D4800F00BFD28682568FCF7A5FE06462C
:1038100028460F46FCF7A0FE3246CDE900013B46A4
:103820004648474D00F082FC2068FCF795FE0246B2
:103830000B464448444900F0F9FCD5ED007A94ED7C
:10384000007AF8EEE77AF4EEC77AF1EE10FA63D870
:103850003E4800F0E3FC00224FF440713C48FEF784
:10386000D3F920683B4CFCF777FE2B6800930246A7
:103870000B463948394900F0D9FC3748FFF7FCFEC0
:10388000C820FDF765FB4FF4FA7332222146344815
:10389000FFF71EFE002844D023786D2B41D16378BA
:1038A000612B3ED1A3786E2B3BD1FFF751FF2D4901
:1038B000244800F0DFFC234929484FF4FA730C2216
:1038C00003B0BDE8F040FFF7AABD1748FDF73EFE84
:1038D00007EE900AF8EE677A234BC5ED007AD5ED36
:1038E000007A93ED007A214B67EE877AD3ED006A78
:1038F0001F4B87EEA67A83ED007AD3ED007A1D4B3D
:1039000093ED007A1C4B77EEC77AD3ED006A87EE11
:10391000A67A84ED007A76E7184800F07FFC012251
:103920009AE703B0F0BD00BF9C070020CC8D0008D3
:10393000A8060020D0060020E38D0008068E0008AF
:10394000AC06002032070020338E0008448E0008A9
:103950000004004814070020C40600205D8E000803
:10396000F0070020788E00081400002010000020CE
:10397000D40600200C00002008000020508E000813
:1039800030B5A7B02822002106A800F0C7FB1422FA
:10399000002101A800F0C2FB5822002110A800F06D
:1039A000BDFB0123099310230A934FF40043022522
:1039B0000D9306A84FF4E0130E9306950C95FEF7B1
:1039C000C3FB0F230024019329464FF4806301A811
:1039D0000493029503940594FEF764FE41F2C30339
:1039E000109310A84FF48073129413941A931894A0
:1039F0001D94FEF731FF27B030BD000080B59AB0AE
:103A0000FDF782FAFFF7BCFF142200210FA800F097
:103A100085FBA64BA64D5A6942F400225A615A69A9
:103A200002F400220192019A5A6942F480025A611A
:103A30005A6902F480020292029A5A6942F40032F0
:103A40005A615A6902F400320392039A5A6942F4A5
:103A500080225A615B6903F48023049300222021B1
:103A60004FF09040049BFEF7CFF800224FF44071D6
:103A700090480024FEF7C8F8012620230FA94FF034
:103A800090400F93109611941294FDF7E7FFC02316
:103A90000FA94FF090400F9310941194FDF7DEFFA3
:103AA0004FF482630FA983480F9310941194FDF78C
:103AB000D5FF80230FA980480F934FF440771094CF
:103AC0001194FDF7CBFF0FA97A480F971096119428
:103AD0001294FDF7C3FF182221460FA808940994F9
:103AE0000A9400F01BFB4FF0A04385E8180028461D
:103AF00004236B61AC602C61EC616C622C63EE6240
:103B0000EC602E626C63AC61AC63FDF79BFA08A9B4
:103B100028460894FDF7B6FE0FA928460F96109682
:103B20001294119413941494FDF714FD6348644B9C
:103B300084600C254FF4165880E808014561C46084
:103B400004618461C46104624462FFF762FD5D4800
:103B50005D4B456180E808018460C4600461846154
:103B6000C46104624462FFF754FD1C22214608A888
:103B7000564D05940694079400F0D0FA2C22214665
:103B80000FA800F0CBFA524BAC60284685E818002D
:103B9000EC602C616C61AC61FFF70CF805A928465C
:103BA000059406940794FFF73DFA2246602308A97E
:103BB0002846089309940A940B940C940D940E943F
:103BC000FFF7A8F94FF400530FA9149328464FF0BC
:103BD000007317930F9410941194129413941594E6
:103BE000169418941994FFF747FA2846394D00F0B7
:103BF0005FF9394A394BAC60284685E80C00EE6025
:103C00002C616C61AC61EC612C62FEF7DEF8214640
:103C10002846FEF74DFA21462846FEF76FFA30484F
:103C200000F0FCFA324639462248FDF7EDFF0A2340
:103C30000222E4212846FEF7B1F90028F7D12948ED
:103C4000294C1E4D294EFFF717FD4FF4FA7332220F
:103C500025492846FFF73CFC0028F6D02378752B31
:103C600015D16378702B0CD1FFF716FD2049214840
:103C700000F000FB4FF4FA730F221E492846FFF7AD
:103C8000CEFB002323706370A370E370DDE7642B29
:103C900034D163786F2BF4D1A378772BF1D1E3780B
:103CA0006E2BEED1FFF71AFD1349E0E7001002403A
:103CB0009C0700200004004800080048F00700208E
:103CC00000380140A00800200044004060080020A7
:103CD000002C014050070020005800400E09002031
:103CE000F98E0008098F000814070020788E00085C
:103CF000188F000832070020288F0008622B0FD190
:103D00006378612BBDD1A378742BBAD1FFF710FD76
:103D100019491A4800F0AEFA4FF4FA730D22ACE7D5
:103D2000612B16D16378752BABD1A378742BA8D1F6
:103D3000E3786F2BA5D1FFF753FD11490F4800F031
:103D400099FA4FF4FA730F220C492846FFF767FBE4
:103D50007BE76D2B95D16378612B92D1A3786E2B85
:103D60008FD1FFF7F5FC3146044800F083FA4FF499
:103D7000FA730C22E8E700BF388F000832070020F2
:103D8000468F0008704700000C4B07B59A6942F057
:103D900001029A619A6902F001020092009ADA69BE
:103DA00042F08052DA61DB6903F08053019307200F
:103DB000019BFDF7F7FD03B05DF804FB0010024026
:103DC00010B5044688B01422002103A800F0A6F91B
:103DD0002368B3F1A04F1ED103F1704303F5043300
:103DE00003A95A6942F080525A615A6902F080521E
:103DF0000192019A5A6942F400325A615B6903F4F4
:103E000000330293029B012303934FF0904003235E
:103E10000493FDF723FE08B010BD000010B5044662
:103E200088B01422002103A800F078F92268144B0E
:103E30009A4222D1134C636943F40033636163698E
:103E400003F400330193019B4FF4C06303931223E7
:103E50000493012305930323069303A904234FF03E
:103E600090400793FDF7FAFDE36943F48003E361B3
:103E7000E36903F480030293029B08B010BD00BF06
:103E800000580040001002400268084B9A4282B07D
:103E90000AD103F564439A6942F400629A619B690E
:103EA00003F400630193019B02B07047002C0140B2
:103EB00010B5044686B01422002101A800F02EF9A6
:103EC00022680C4B9A4213D103F5644301A95A6945
:103ED000094842F400225A615B6903F4002300930D
:103EE000009B01230193022302930593FDF7B6FD86
:103EF00006B010BD002C01400008004810B5142287
:103F00008AB0044600210DEB020000F007F9236897
:103F1000214A934220D1214B21489A6942F48042A0
:103F20009A619A6902F480420192019A5A6942F4B4
:103F300000225A615B6903F400230293029B302341
:103F4000059302230693032308930723099305A9E6
:103F5000FDF784FD0AB010BD124A9342FAD10F4B0F
:103F6000DA6942F40032DA61DA6902F4003203926B
:103F7000039A5A6942F400325A615B6903F40033D0
:103F80000493049B0C2305930223069307230993B0
:103F900005A94FF09040DBE70038014000100240D7
:103FA00000080048004400407047FEE7FEE7FEE7D7
:103FB000FEE7704770477047FCF7B8BF08B50122AD
:103FC0004FF0FF330448FFF783FA00280CBF0120AD
:103FD0004FF0FF3008BD00BFA008002010B54FF023
:103FE000FF331446054892B2FFF719FA0138C0B200
:103FF000012801D8FFF7C6FE204610BDA00800200A
:104000004FF0FF3070474FF400534B600020704773
:1040100001207047002070471549D1F8883043F4DB
:104020007003C1F88830134B1A6842F001021A601D
:104030005868114A02405A601A6822F0847222F4C9
:1040400080321A601A6822F480221A605A6822F4B8
:10405000FE025A60DA6A22F00F02DA62186B074A2F
:1040600002401A6300229A604FF000638B60704731
:1040700000ED00E0001002400CC07FF8CCFC00FF17
:10408000DFF834D0002103E00C4B5B58435004317F
:104090000B480C4B42189A42F6D30B4A02E000231D
:1040A00042F8043B094B9A42F9D3FFF7B5FF00F001
:1040B00011F8FFF7A3FCFEE7000001207092000852
:1040C000000000208C0600208C0600202009002023
:1040D000FEE7000070B50D4E0D4CA41BA41000258A
:1040E000A54209D10B4E0C4C04F052FEA41BA410A7
:1040F0000025A54205D170BD56F8253098470135F9
:10410000EEE756F8253098470135F2E76892000847
:1041100068920008689200086C9200080244034606
:10412000934200D1704703F8011BF9E70FB40A4B23
:1041300013B51C6824B1A36913B9204603F0E4F851
:1041400005AB049AA1680193204601F071F802B012
:10415000BDE8104004B070471C00002030B5054693
:1041600089B008460C46FCF73BF8284B0693012320
:1041700005900793184404AB019302230494039021
:10418000029325B1AB6913B9284603F0BDF8AB69BA
:10419000AC6813B9284603F0B7F81D4B9C422AD1EE
:1041A0006C68636EDB0705D4A389980502D4A06D03
:1041B00003F0B8FBB4F90C30990406D443F400536F
:1041C000A381636E23F400536366284601AA214647
:1041D00003F02CFA636E002814BF4FF0FF350A2558
:1041E000DA0705D4A3899B0502D4A06D03F09BFBDD
:1041F000284609B030BD074B9C4201D1AC68D0E7DE
:10420000054B9C4208BFEC68CBE700BF428E00081C
:104210001890000838900008F88F0008024B0146FB
:104220001868FFF79BBF00BF1C0000200EB400B54C
:104230009CB04FF402711DABADF8141002900690C3
:104240006FF000410A48049107914FF6FF7153F84F
:10425000042BADF816100068019302A900F014F8C1
:10426000029B00221A701CB05DF804EB03B070478B
:104270001C000020034611F8012B03F8012B002A33
:10428000F9D17047000000002DE9F04FBDB08A461B
:1042900015461F46834603F035FB03680D93184609
:1042A000FBF79EFFBAF80C3008901B0618D5DAF819
:1042B0001030ABB94021584603F0AAFBCAF8000001
:1042C000CAF8100048B90C23CBF800304FF0FF3388
:1042D000099309983DB0BDE8F08F4023CAF8143027
:1042E0009FED997B8DED067B00232CAC1F942193D1
:1042F000209305950393119310930993059D2B46E5
:1043000013F8012B12B1252A40F08380059BEE1A89
:104310000DD084E84800219B33442193209B013336
:10432000072B209377DC0834099B334409932B78BF
:10433000002B00F029870023691C8DF85F301A4696
:104340004FF0FF390A931D460A204E1C0978059646
:10435000029102992039582900F21884DFE811F0FF
:10436000A60016041604AB00160416041604160460
:1043700016041604AE0065001604B700BA00160451
:10438000D700DA00DA00DA00DA00DA00DA00DA0060
:10439000DA00DA00160416041604160416041604CD
:1043A000160416041604160415012B0116042B011D
:1043B0001604160416041604ED0016041604400331
:1043C00016041604160416041604A803160416048C
:1043D00086001604160416041604160416041604A1
:1043E00016041604160407016B002B012B012B0188
:1043F000F0006B0016041604FA00160422034203B0
:1044000076030101160487031604AA031604160492
:10441000C2031D4673E71FAA5146584604F0DBF954
:10442000002840F092862CAC7EE701232B220599D0
:104430008BE70F46FBE70BB18DF85F20AE0640F12E
:10444000AA80073727F0070707F10803D7E90067B5
:104450000493002E77F1000306DA76424FF02D0325
:1044600067EB47078DF85F300123CAE20BB18DF887
:104470005F20374B1193AB0640F13983073727F0A4
:10448000070707F10803D7E900670493E8070BD58E
:1044900056EA070308D030238DF860309DF80830C5
:1044A0008DF8613045F002050223A7E2002ABED153
:1044B00001232022BBE745F00105B8E73E680A96D4
:1044C000002E07F10401B4DA76420A960F4645F051
:1044D0000405ACE705994E1C097802912A2910D0F1
:1044E0004FF0000905960299303909293FF631AF9E
:1044F00000FB091905990E4616F8011B0291059655
:10450000F1E73968059641EAE17904378FE745F02C
:1045100080058CE700210A9102990A9E303900FB40
:1045200006110A9105990E4616F8011B029102998F
:10453000059630390929EFD90BE745F0080576E7EC
:1045400045F0400573E700BF0000000000000000D8
:10455000848F0008059909786C2905D105990131E6
:10456000059145F0200562E745F010055FE73B1D2A
:10457000049300263B688DF888308DF85F604FF01B
:10458000010937460DF188081BE10BB18DF85F205A
:1045900045F0100552E715F0100F07F1040303D0A2
:1045A0003E680493F71754E73E68049315F0400FF4
:1045B00018BF36B2F6E70BB18DF85F20073727F04A
:1045C000070707F10803049397ED007B8DED067B49
:1045D000069B1293079B23F0004313934FF0FF3287
:1045E0004A4BDDE91201FCF7A5FA002840F0D58519
:1045F0004FF0FF32454BDDE91201FCF77DFA002850
:1046000040F0CB8500220023DDE90601FCF76AFAC1
:1046100010B12D238DF85F303D4B3E4A029925F0B5
:1046200080054729CCBF904698464FF003090026E5
:104630003746C6E0B9F1FF3F22D0029B23F02003AA
:10464000472B04D1B9F1000F08BF4FF0010945F421
:1046500080730C93079B002B15DA069B0E93079B28
:1046600003F100430F932D230B93029B23F02007AC
:10467000462F0ED0452F46D109F1010602210AE04E
:104680004FF00609E3E79DED067B00238DED0E7BE1
:10469000EAE74E4603211DAB01931AAB0093324665
:1046A00019AB9DED0E0B584601F03AFF472F80469F
:1046B00002D1E80740F17E8508EB0603462F0393FD
:1046C00011D198F80030302B09D100220023DDE908
:1046D0000E01FCF7FDF910B9C6F101061996039A0F
:1046E000199B1A44039200220023DDE90E01FCF716
:1046F000EFF988B930221D9B039999420ED9591CB4
:104700001D911A70F7E74E46B8E700BFFFFFEF7F35
:10471000748F0008788F0008039B1D931D9B472F03
:10472000A3EB0803039340F0FA80199BD91C02DB2A
:10473000994580F22081029B023B0293199A9DF8D1
:1047400008108DF86C10531E002B1993B6BFC2F1E0
:1047500001032B222D22092B8DF86D2040F3FB80C5
:104760000DF17B020A2693FBF6F006FB1033303383
:10477000092802F8013C02F1FF31034600F3E4800E
:10478000303301F8013C023A0DF16E030DF17B006C
:1047900082421946C0F0DA80039A1BABCB1A012A79
:1047A000109303EB020902DC15F0010702D0089B0D
:1047B000002799440B9B13B12D238DF85F300C9D7E
:1047C00000264E453346B8BF4B460B939DF85F30ED
:1047D00013B10B9B01330B9315F0020314931EBF0F
:1047E0000B9B02330B9315F08403159318D10A9B8E
:1047F0000B9A9B1A002B0C9312DD0C9B102BA94BD0
:10480000236000F3D5810C9B63600C9A219B1344B9
:104810002193209B0133072B209300F3E28108347E
:104820009DF85F3073B10DF15F0323600123636076
:10483000219B01332193209B0133072B209300F30D
:10484000DA810834149B6BB118AB236002236360D8
:10485000219B02332193209B0133072B209300F3EC
:10486000D4810834159B802B14D10A9B0B9A9B1A78
:10487000002B0FDD8C4A2260102B00F3D081219A8F
:10488000636013442193209B0133072B209300F393
:10489000DF810834A6EB0906002E0FDD824B236072
:1048A000102E00F3DF81209B2198666001330644BF
:1048B000072B2196209300F3EC810834EB0500F1DF
:1048C000F281219B84E800034B442193209B013318
:1048D000072B209340F319841FAA5146584603F032
:1048E0007AFF002840F031842CAC6B0700F1108473
:1048F000099B0A9A0B998A42ACBF9B185B180993D3
:10490000219B3BB11FAA5146584603F064FF002883
:1049100040F01B8400232093049F2CACEEE4029B08
:10492000652B7FF70BAF029B662B24D1199B002BC5
:1049300019DDB9F1000F01D1EA0702D5089A134435
:104940004B44199F994635E70A460CE712F8011BBC
:1049500003F8011B1CE7302213448DF86E208DF8FC
:104960006F301CA918E7B9F1000F01D1EB0715D57D
:10497000089B0133E4E7199A039B9A4206DBEF0791
:104980000ED5089B134467220292DAE7039B08992D
:10499000002A0B44F7DCC2F10102F3E70123D0E760
:1049A0001346F0E70BB18DF85F2015F0200F07F1EB
:1049B000040308D009993A68CE1708463146C2E97F
:1049C00000011F469AE4EE0603D53A680999116082
:1049D000F7E76806F9D53A68BDF824101180F0E7CA
:1049E00045F0100515F0200322D0073727F0070700
:1049F00007F10803D7E900670493002300228DF82C
:104A00005F20B9F1FF3F00F0DB8325F080020B92BD
:104A100056EA070240F0D983B9F1000F00F0AA80EE
:104A2000012B76D0022B00F0918000260027D2E3E4
:104A30003A1D15F01001049202D03E680027DDE710
:104A400015F04003F9D03E880027D6E73B1D0493BC
:104A5000302378228DF86030144B3E681193002784
:104A600045F002058DF8612002230292C6E73B1D46
:104A70000026B9F1FF3F0493D7F800808DF85F60FE
:104A80000AD04A4631464046FBF7B2FB002800F008
:104A90008D80A0EB0809CBE54046FBF7A1FB8146E2
:104AA000C6E500BFA88F0008B88F0008958F0008E2
:104AB00045F01005A90609D5073727F0070707F1C4
:104AC0000803D7E900670493012397E73B1D15F01E
:104AD000100F049301D03E6802E06A06FBD53E88C1
:104AE0000027F1E70BB18DF85F20A34BC2E43B1D1B
:104AF00015F0100F049301D03E6802E06E06FBD55E
:104B00003E880027C2E4434666E3002F08BF0A2E12
:104B100005D20DF1F008303608F8416D77E30DF15C
:104B2000B008304639460A220023FCF741F83032FB
:104B300008F8012D0023304639460A22FCF738F8E0
:104B400006460F4656EA0703EBD160E3002600272E
:104B50000DF1B00806F00F03119AD35C08F8013D7F
:104B6000330943EA07733A091E46174656EA070314
:104B7000F0D14CE33BB9EA0705D50DF1F00830233D
:104B800008F8413D43E30DF1B00840E30BB18DF867
:104B90005F20029B002B00F0F7829DF808308DF813
:104BA000883000268DF85F600497E8E406463FE50C
:104BB00010236360219B10332193209B0133072B2B
:104BC000209304DC08340C9B103B0C9315E61FAAC1
:104BD0005146584603F0FFFD002840F0B6822CAC49
:104BE000F1E71FAA5146584603F0F5FD002840F0B2
:104BF000AC822CAC14E61FAA5146584603F0EBFDDC
:104C0000002840F0A2822CAC1CE61FAA5146584650
:104C100003F0E1FD002840F098822CAC22E610223F
:104C20006260219A10322192209A0132072A209242
:104C300002DC0834103B1DE61FAA514658460C936F
:104C400003F0C9FD002840F080822CAC0C9BF1E7FA
:104C50001FAA5146584603F0BEFD002840F0758259
:104C60002CAC17E610236360219B10332193209B0B
:104C70000133072B209302DC0834103E0EE61FAAF6
:104C80005146584603F0A7FD002840F05E822CAC48
:104C9000F3E71FAA5146584603F09DFD002840F057
:104CA00054822CAC0AE6029B652B40F3A9810022BA
:104CB0000023DDE90601FBF70BFF002862D02F4B34
:104CC000236001236360219B01332193209B0133E7
:104CD000072B209325DC0834199B039A934202DBAF
:104CE000EE077FF502AE0D9B2360089B6360089A78
:104CF000219B13442193209B0133072B20931ADC23
:104D00000834039B5E1E002E7FF7EFAD1C4F4FF063
:104D10001008102E276018DC6660219B1E44219627
:104D2000D4E51FAA5146584603F055FD002840F02F
:104D30000C822CACD0E71FAA5146584603F04BFD1D
:104D4000002840F002822CACDBE7219BC4F80480F1
:104D500010332193209B0133072B209302DC08346E
:104D6000103ED6E71FAA5146584603F034FD0028EE
:104D700040F0EB812CACF3E7958F0008A68F00087C
:104D8000B88F0008199B002B7ADC9B4B2360012312
:104D90006360219B01332193209B0133072B2093D8
:104DA00044DC0834199B23B9039B13B9E8077FF54A
:104DB0009CAD0D9B2360089B6360089A219B134464
:104DC0002193209B0133072B209339DC04F1080346
:104DD000199E002E19DA894F76421024102E1F607A
:104DE00038DC219A5E601644209A21960132072A07
:104DF00003F10803209208DD1FAA5146584603F02C
:104E0000EAFC002840F0A1812CAB039A5A60039978
:104E1000219AC3F800800A442192209A0132072A7D
:104E200020923FF759AD03F108045EE51FAA5146F1
:104E3000584603F0D0FC002840F087812CACB1E745
:104E40001FAA5146584603F0C6FC002840F07D8159
:104E50002CABBDE7219A5C6010322192209A01327E
:104E6000072A209202DC0833103EB7E71FAA5146FA
:104E7000584603F0B0FC002840F067812CABF3E704
:104E8000039BBB42A8BF3B46002B1E460BDD636065
:104E9000219BC4F8008033442193209B0133072BCE
:104EA00020935FDC0834002EACBFBE1B3E46002EB4
:104EB0000FDDDFF84891C4F80090102E5CDC219BD8
:104EC00066601E44209B21960133072B20936ADCE9
:104ED0000834199B039A934201DBE9070DD50D9B1A
:104EE0002360089B6360089A219B13442193209BB5
:104EF0000133072B209360DC0834039B039ADE1BED
:104F0000199BD31A9E42A8BF1E46002E0BDD219B83
:104F1000666033442193209B01334744072B27606D
:104F2000209354DC0834199B039A002EA2EB030350
:104F3000ACBF9E1B1E46002E7FF7D7AC2F4F4FF005
:104F40001008102E27607FF7E7AE219BC4F804807D
:104F500010332193209B0133072B209341DC08342D
:104F6000103EEEE71FAA5146584603F034FC0028D5
:104F700040F0EB802CAC96E710236360219B10334C
:104F80002193209B0133072B209302DC0834103E31
:104F900091E71FAA5146584603F01DFC002840F037
:104FA000D4802CACF3E71FAA5146584603F013FCFB
:104FB000002840F0CA802CAC8BE71FAA5146584607
:104FC00003F009FC002840F0C0802CAC95E71FAA34
:104FD0005146584603F0FFFB002840F0B6802CAC49
:104FE000A1E71FAA5146584603F0F5FB002840F000
:104FF000AC802CACB4E700BFA68F0008B88F0008C7
:10500000039B012B01DCEA0776D501236360219B1A
:10501000C4F8008001332193209B0133072B209398
:1050200036DC08340D9B2360089B6360089A219B43
:1050300013442193209B0133072B209331DC083448
:1050400000230022DDE90601FBF742FD039B5E1E03
:1050500000282FD108F1010384E84800219B039A1E
:10506000013B13442193209B0133072B20934ADDFE
:105070001FAA5146584603F0AEFB002865D12CAC60
:105080001BAB2360109B6360109A219B13441CE4AC
:105090001FAA5146584603F09EFB002855D12CAC60
:1050A000C0E71FAA5146584603F095FB00284CD193
:1050B0002CACC5E7002EE3DD594F4FF01008102E41
:1050C000276004DC219B66601E442196CBE7219B70
:1050D000C4F8048010332193209B0133072B2093C5
:1050E00002DC0834103EEAE71FAA5146584603F096
:1050F00072FB50BB2CACF5E701236360219BC4F825
:1051000000800133AEE70834BAE70834FFF7EDBB9F
:105110000A9B0B9A9D1A002D7FF7EAAB1026414B94
:105120002360102D1BDC219B65601D44209B219575
:105130000133072B20937FF7DBAB1FAA514658465C
:1051400003F049FB00283FF4D3ABBAF80C3013F05E
:10515000400F099B18BF4FF0FF33FFF7B9B8219BF1
:10516000666010332193209B0133072B209302DCD0
:105170000834103DD3E71FAA5146584603F02BFBD5
:105180000028E2D12CACF4E7219B002BDDD01FAA34
:105190005146584603F01FFBD7E7DDE906231046CA
:1051A0001946FBF7C7FC00283FF444AA1E4B1F4AD0
:1051B000FFF734BA1D9BA3EB08030393FFF7B5BABF
:1051C00056EA07020B953FF42BAC012B3FF49DAC44
:1051D000022B3FF4BDAC2CABF10841EA4771F80853
:1051E00006F0070207460E46303256EA070103F181
:1051F000FF3803F8012C7FF486AC0B99C90706D55C
:10520000302A04D0302208F8012CA3F102084E46BF
:105210000DF1B009A9EB08090B9D0027FFF7D1BAE2
:10522000B88F0008A88F00087C8F0008808F0008C6
:105230002DE9F04FBDB0884615461C461F468346F3
:1052400002F060FB03680D931846FAF7C9FF099056
:10525000BBF1000F05D0DBF8183013B9584602F047
:1052600053F8994B984537D1DBF80480D8F864306F
:10527000D80707D4B8F80C30990503D4D8F85800EB
:1052800002F050FBB8F90C309A0409D443F40053EF
:10529000A8F80C30D8F8643023F40053C8F8643010
:1052A000B8F80C301E0702D5D8F8103003BB4146C1
:1052B000584601F039F8D8B1D8F86430DD0707D482
:1052C000B8F80C309C0503D4D8F8580002F02BFB3A
:1052D0004FF0FF330A9326E07C4B984502D1DBF870
:1052E0000880C3E77A4B984508BFDBF80C80BDE720
:1052F000B8F80C3003F01A020A2A18D1B8F90E20B7
:10530000002A14DBD8F86420D00705D4990503D40B
:10531000D8F8580002F007FB23462A464146584673
:1053200000F0C2FF0A900A983DB0BDE8F08F9FEDF3
:10533000647B8DED067B00232CAC1F94219320937E
:1053400005950393119310930A93059D2B4613F82B
:10535000012B12B1252A40F08380059BEE1A0DD057
:1053600084E84800219B33442193209B0133072B81
:10537000209377DC08340A9B33440A932B78002B64
:1053800000F039870023691C8DF85F301A464FF012
:10539000FF3A0B931D460A204E1C09780596029190
:1053A00002992039582900F21D84DFE811F0B3007A
:1053B0001B041B04B8001B041B041B041B041B045C
:1053C0001B04BB0065001B04C400C7001B04E400F1
:1053D000E700E700E700E700E700E700E700E70095
:1053E000E7001B041B041B041B041B041B041B04FD
:1053F0001B041B041B041B0131011B0431011B0492
:105400001B041B041B04FA001B041B0446031B049F
:105410001B041B041B041B04AD031B041B0493008F
:105420001B041B041B041B041B041B041B041B0484
:105430001B041B040D016B00310131013101FD0022
:105440006B001B041B0400011B04280348037C039E
:1054500007011B048D031B04AF031B041B04C703BC
:105460001D4673E71FAA4146584603F02EFA00284E
:1054700040F099862CAC7EE701232B2205998BE71F
:105480000F46FBE70BB18DF85F20AA0640F1B08014
:10549000073727F0070707F10803D7E900670493E8
:1054A000002E77F1000306DA76424FF02D0367EB0A
:1054B00047078DF85F300123D0E200BFAFF30080D3
:1054C000000000000000000018900008389000085C
:1054D000F88F00080BB18DF85F20A24B1193A9063D
:1054E00040F13183073727F0070707F10803D7E9B1
:1054F00000670493EB070BD556EA070308D0302367
:105500008DF860309DF808308DF8613045F0020567
:105510000223A0E2002AB1D101232022AEE745F008
:105520000105ABE73E680B96002E07F10401A7DAF0
:1055300076420B960F4645F004059FE705994E1CF1
:10554000097802912A2910D04FF0000A0596029995
:10555000303909293FF624AF00FB0A1A05990E4697
:1055600016F8011B02910596F1E73968059641EAA4
:10557000E17A043782E745F080057FE700210B914F
:1055800002990B9E303900FB06110B9105990E46CE
:1055900016F8011B02910299059630390929EFD9B5
:1055A000FEE645F0080569E745F0400566E7059920
:1055B00009786C2905D105990131059145F020053F
:1055C0005CE745F0100559E73B1D049300263B6856
:1055D0008DF888308DF85F604FF0010A08960DF164
:1055E00088091EE10BB18DF85F2045F010054CE7EE
:1055F00015F0100F07F1040303D03E680493F7176A
:105600004EE73E68049315F0400F18BF36B2F6E738
:105610000BB18DF85F20073727F0070707F1080364
:10562000049397ED007B8DED067B069B1293079B01
:1056300023F0004313934FF0FF324B4BDDE912018F
:10564000FBF778FA002840F0E3854FF0FF32464B35
:10565000DDE91201FBF750FA002840F0D98500225D
:105660000023DDE90601FBF73DFA10B12D238DF88B
:105670005F303E4B3E4A029925F080054729CCBF5A
:10568000914699464FF0030A00260896C9E0BAF100
:10569000FF3F22D0029B23F02003472B04D1BAF115
:1056A000000F08BF4FF0010A45F480731493079B65
:1056B000002B15DA069B0E93079B03F100430F9313
:1056C0002D230C93029B23F02007462F0ED0452F4D
:1056D00046D10AF1010602210AE04FF0060AE3E78B
:1056E0009DED067B00238DED0E7BEAE756460321F8
:1056F0001DAB01931AAB0093324619AB9DED0E0B17
:10570000584600F00DFF472F814602D1EB0740F1CC
:105710008C8509EB0603462F039311D199F80030CD
:10572000302B09D100220023DDE90E01FBF7D0F96F
:1057300010B9C6F101061996039A199B1A440392EF
:1057400000220023DDE90E01FBF7C2F990B93022F7
:105750001D9B039999420FD9591C1D911A70F7E7A7
:105760005646B8E7848F0008FFFFEF7F748F00086C
:10577000788F0008039B1D931D9B472FA3EB090304
:10578000039340F0F880199BDF1C02DB9A4580F2FE
:105790001F81029B023B0293199A9DF808108DF815
:1057A0006C10531E002B1993B6BFC2F101032B22BC
:1057B0002D22092B8DF86D2040F3FA800DF17B022C
:1057C0000A2693FBF6F006FB10333033092802F863
:1057D000013C02F1FF31034600F3E380303301F86E
:1057E000013C023A0DF16E030DF17B008242194635
:1057F000C0F0D980039A1BABCB1A012A109303EB9C
:10580000020A03DC15F00103089303D0099B9A44B4
:10581000002308930C9B13B12D238DF85F30149D4A
:10582000002656453346B8BF53460C939DF85F306B
:1058300013B10C9B01330C9315F0020314931EBF9C
:105840000C9B02330C9315F08403159314D10B9B1E
:105850000C9A9F1A002F0FDDA84B2360102F00F326
:10586000D381219B67601F44209B21970133072B25
:10587000209300F3E08108349DF85F3073B10DF19F
:105880005F03236001236360219B01332193209BED
:105890000133072B209300F3D8810834149B6BB19C
:1058A00018AB236002236360219B02332193209B6A
:1058B0000133072B209300F3D2810834159B802BF2
:1058C00014D10B9B0C9A9F1A002F0FDD8C4B236079
:1058D000102F00F3CE81219B67601F44209B2197EE
:1058E0000133072B209300F3DD810834A6EB0A0671
:1058F000002E0FDD824F2760102E00F3DD81209BEC
:105900002198666001330644072B2196209300F30B
:10591000EA810834E90500F1F081219B84E8000662
:1059200053442193209B0133072B209340F31B8486
:105930001FAA4146584602F0C8FF002840F03384B1
:105940002CAC680700F112840A9B0B9A0C998A42CE
:10595000ACBF9B185B180A93219B3BB11FAA414621
:10596000584602F0B2FF002840F01D840023209327
:10597000049F2CACE9E4029B652B7FF70DAF029BE3
:10598000662B25D1199B002B1ADDBAF1000F01D12E
:10599000EE0702D5099A13445344199A08929A467D
:1059A00038E70A460DE712F8011B03F8011B1DE753
:1059B000302213448DF86E208DF86F301CA919E742
:1059C000BAF1000F01D1ED0715D5099B0133E3E7CB
:1059D000199A039B9A4206DBE8070ED5099B1344EC
:1059E00067220292D9E7039B0999002A0B44F7DC4E
:1059F000C2F10102F3E70123CFE71346F0E70BB151
:105A00008DF85F2015F0200F07F1040308D00A99E4
:105A10003A68CE1708463146C2E900011F4694E4B1
:105A2000E90603D53A680A991160F7E76A06F9D5DD
:105A30003A68BDF828101180F0E745F0100515F020
:105A4000200322D0073727F0070707F10803D7E91B
:105A500000670493002300228DF85F20BAF1FF3F16
:105A600000F0E88325F08002089256EA070240F031
:105A7000E683BAF1000F00F0A980012B75D0022B4C
:105A800000F0908000260027DFE33A1D15F010019A
:105A9000049202D03E680027DDE715F04003F9D0FC
:105AA0003E880027D6E73B1D0493302378228DF8EB
:105AB0006030144B3E681193002745F002058DF8C5
:105AC000612002230292C6E73B1D0026BAF1FF3F88
:105AD0000493D7F800908DF85F600AD052463146A3
